:10000000D8C00000FBC00000F9C00000F7C000002D
:10001000F5C00000F3C00000F1C00000EFC0000018
:10002000EDC00000EBC00000E0C4000057C50000B8
:10003000E5C00000E3C00000E1C00000DFC0000038
:10004000DDC00000DBC00000D9C00000D7C0000048
:10005000D5C00000D3C00000D1C0000025C40000FE
:10006000CDC0000056C200007BC20000A6C2000046
:10007000C5C00000C3C00000C1C00000BFC0000078
:10008000BDC00000BBC00000B9C00000B7C0000088
:10009000B5C00000B3C00000B1C00000AFC0000098
:1000A000ADC00000ABC00000A9C0000001230223C6
:1000B0000423082380230129022904290829402632
:1000C000802640298029102320234023802F402F81
:1000D000202F102F022F012F10292029402C000142
:1000E00000008F0112000200004C014300030000D9
:1000F000480104010309042E011802030904160132
:10010000160303090408010C0C033100320033000C
:100110003400350000001603550053004200200053
:10012000530065007200690061006C000000180354
:100130005400650065006E0073007900640075006E
:1001400069006E006F000000040309040902430007
:10015000020100C03209040000010202010005246E
:1001600000100105240100010424020605240600F4
:10017000010705820308004009040100020A00008B
:10018000000705030240000007058402400000123A
:1001900001000202000020C0168304710201020364
:1001A000010001C102018036018136002401F702FD
:1001B000CD0811241FBECFEFDAE0DEBFCDBF11E0C6
:1001C000A0E0B1E0E2EDF1E102C005900D92AE32A7
:1001D000B107D9F721E0AEE2B1E001C01D92AD3B1D
:1001E000B207E1F710E0C9EDD0E003C02197FE01AE
:1001F000E8D7C63DD107D1F733D2E9C701CF4FEFDA
:1002000061EA71E082E391E04BD140EC52E160E0C1
:1002100070E083EB91E059D70FB6F8948091A80174
:100220009091A901A091AA01B091AB010FBE80935A
:100230002E0190932F01A0933001B093310164E619
:1002400070E080E090E070C30FB6F8948091A80150
:100250009091A901A091AA01B091AB010FBE80932A
:100260002E0190932F01A0933001B0933101089596
:10027000CF93DF931F92CDB7DEB782E391E07AD0C0
:10028000181619068CF582E391E0A6D0813191050C
:1002900021F481E08093000122C083319105B1F403
:1002A000109200010FB6F8948091A8019091A901D5
:1002B000A091AA01B091AB010FBE80932E01909343
:1002C0002F01A0933001B093310109C0898341E02F
:1002D00050E0BE016F5F7F4F83EB91E0F6D561E0A8
:1002E00070E080E090E020D3809100018823B1F19C
:1002F0005E9A83EB91E06ED5181619068CF5809105
:100300000001882369F183EB91E09DD5682F82E39A
:1003100091E07FD080910001811128C00FB6F89440
:100320008091A8019091A901A091AA01B091AB017F
:100330000FBE40912E0150912F01609130017091BC
:100340003101841B950BA60BB70B81339547A10593
:10035000B10560F081E08093000108C05E98C9CFCC
:1003600065E070E080E090E0DFD2D4CF0F90DF91C5
:10037000CF9108955091660140916501852F90E0DD
:10038000242F30E0541710F4805C9F4F821B930B96
:1003900008955091660140916501252F30E0842F2A
:1003A00090E0821B930B541710F0879608950197E5
:1003B000089580916601E09165018E1751F0EF5F1D
:1003C000E03408F0E0E0F0E0E959FE4F808190E091
:1003D00008958FEF9FEF08959091660180916501D8
:1003E000981779F0909165019F5F903408F090E044
:1003F000E92FF0E0E959FE4F80819093650190E08C
:1004000008958FEF9FEF089580913A018111FCCFFD
:1004100008952091C90023FD06C021E0FC0122833C
:1004200080E090E00895809101018F3F21F080915C
:100430003A01882399F090913C0180913B019813F7
:1004400012C08091C80085FF0EC08FB7F8946093EA
:10045000CE0091E090933A018FBF1DC0E091010161
:10046000F0E063D1E8CF80913C018F5F8832B0F437
:1004700090913B019817E1F3E82FF0E0E35CFE4F29
:10048000608391E090933A0180933C018091C90090
:1004900080628093C90081E090E0089580E0E8CF19
:1004A0001F93CF93DF93EB01142F409301014F3F34
:1004B00029F0842F29D1E12FF0E03DD1C0FF08C001
:1004C000C13080E1D80720F482E08093C80004C0E6
:1004D0001092C800D695C7952197D093CD00C093B0
:1004E000CC008091C90083FD10C01092660110926B
:1004F000650110923C0110923B0110923A0186E096
:100500008093CA0088ED8093C900DF91CF911F913D
:1005100008951F920F920FB60F9211242F938F936D
:100520009F93EF93FF939091CE00809166018F5F30
:10053000803408F080E020916501821739F0E82FBF
:10054000F0E0E959FE4F908380936601FF91EF91AF
:100550009F918F912F910F900FBE0F901F90189524
:100560001F920F920FB60F9211248F939F93EF93C8
:10057000FF9390913C0180913B01981306C08091BC
:10058000C9008F7D8093C9000FC080913B018F5FB0
:10059000883208F080E0E82FF0E0E35CFE4F9081C5
:1005A0009093CE0080933B01FF91EF919F918F91AB
:1005B0000F900FBE0F901F9018951F920F920FB6BD
:1005C0000F9211248F93EF93FF9310923A01809131
:1005D00001018F3F21F0E0910101F0E0ACD0FF91EB
:1005E000EF918F910F900FBE0F901F901895E2E33F
:1005F000F1E0128288EE93E0A0E0B0E08383948380
:10060000A583B68317828DE091E09183808308955E
:10061000CF92DF92EF92FF920F931F93CF93DF93CE
:100620006C01EB017B01E40EF51E00E010E0CE153D
:10063000DF0561F06991D601ED91FC910190F081A7
:10064000E02DC6010995080F191FF1CFC801DF91F0
:10065000CF911F910F91FF90EF90DF90CF90089571
:1006600024D0CDDD05DEFECF1DBA109268001CBC83
:1006700010BE1FBA10927A0010926E0010926F0096
:1006800010927100109272001092C900ECEBF0E031
:10069000108214B817B81AB81DB810BA108215B85D
:1006A00018B81BB81EB811BA0895F894E1E6F0E046
:1006B00020E82083108283E084BD85BDEEE6F0E073
:1006C00080818160808381E08093800092E09093BC
:1006D000810080939000909391009093C00094E0EB
:1006E0009093C1008093C2008093C3001092C40015
:1006F00086E880937A0020937B0010927E0010920F
:100700007D0051D178940895893170F4ECEAF0E0DD
:10071000880FE80FF11D2591E491F0E09FB7F89460
:100720008181822B81839FBF0895E93150F4EE0FC0
:10073000EE55FC4F0994E93120F4EE0FEC52FC4FDA
:1007400009940895289A0895299A08952A9A08954F
:100750002B9A08952F9A6AC0589A58C0599A0895AA
:100760005A9A08955B9A0895469A66C0479A6AC055
:100770005E9A08955F9A6CC02C9A08952D9A4AC08B
:100780002E9A4EC08F9A08958E9A08958D9A089544
:100790008C9A0895899A0895889A08955C9A089584
:1007A0005D9A0895769A089528980895299808954D
:1007B0002A9808952B9808952F9838C0589826C0E5
:1007C000599808955A9808955B980895469834C0AA
:1007D000479838C05E9808955F983AC02C9808955D
:1007E0002D9818C02E981CC08F9808958E98089543
:1007F0008D9808958C9808958998089588980895FB
:100800005C9808955D98089576980895E4B5EF7D15
:10081000E4BD0895E0918000EF77E09380000895B3
:10082000E0918000EF7DE09380000895E0918000EA
:10083000E77FE09380000895E0919000EF77E093E8
:1008400090000895E091C000EF77E093C000089514
:10085000E091C200E77FE093C2000895F89484B766
:10086000877F84BF809160008061809360001092D8
:10087000600080E29EE40197F1F781E08093E00060
:1008800080E28093D80080E69AEE0197F1F7ECDEE3
:100890000C94003FFFCFF894E7DE80E69AEE0197D4
:1008A000F1F70C940000FFCF8F938FB78F93809157
:1008B000A7018D5F8D37D0F48093A7018091A801A7
:1008C0008F5F8093A801D8F08091A9018F4F80930A
:1008D000A901A8F08091AA018F4F8093AA0178F016
:1008E0008091AB018F4F8093AB0109C08D578093EE
:1008F000A7018091A8018E5F8093A80128F78091BD
:10090000AC018C5F8093AC0158F08091AD018F4FAA
:100910008093AD0128F08091AE018F4F8093AE019E
:100920008F918FBF8F911895CF92DF92EF92FF92A8
:100930006B017C0119D09B01C114D104E104F104C5
:1009400071F012D0621B730B683E7340A8F381E014
:10095000C81AD108E108F10828513C4FEDCFFF90AB
:10096000EF90DF90CF9008950FB6F89466B515B26A
:100970007091AC018091AD019091AE010FBE10FE5F
:1009800005C06F3F19F07C5F8F4F9F4F11240024EB
:10099000660F001C660F001C702908958091E80006
:1009A00080FFFCCF08958091D80087FF02C085FFAB
:1009B0001BC081E08093D70080EA8093D80082E159
:1009C00089BD09B400FEFDCF80E98093D800109264
:1009D000E0001092BF011092BE011092BD01109272
:1009E000E1008DE08093E20008951F920F920FB610
:1009F0000F9211242F933F934F935F936F937F93A5
:100A00008F939F93AF93BF93EF93FF939091E100E8
:100A10001092E10093FF11C01092E90081E08093F1
:100A2000EB001092EC0082E28093ED0088E080936E
:100A3000F0001092BF011092BD0192FF1DC0809185
:100A4000BF018823C9F08091B201882359F08150F9
:100A50008093B201811106C084E08093E9008AE3AB
:100A60008093E8008091B101882331F08150809318
:100A7000B101811101C0F2DE90FF0CC080E18093D2
:100A8000E2001092BF0181E08093BE0180EA809372
:100A9000D80019BC8091BE01882379F094FF0DC065
:100AA00082E189BD09B400FEFDCF80E98093D800C2
:100AB0008DE08093E2001092BE01FF91EF91BF9113
:100AC000AF919F918F917F916F915F914F913F91E6
:100AD0002F910F900FBE0F901F9018951F920F929D
:100AE0000FB60F921124EF92FF920F931F932F9343
:100AF0003F934F935F936F937F938F939F93AF93A6
:100B0000BF93CF93EF93FF931092E9008091E80099
:100B100083FF31C1C091F1008091F1000091F1009B
:100B20001091F100E090F100F090F1004091F1009F
:100B30005091F10092EF9093E800863009F03FC0A9
:100B400086E0EEEDF0E0259135910217130711F0E4
:100B5000359615C025913591E216F30611F03396BE
:100B60000EC02591359184914F3F510519F010F039
:100B70004FEF50E0481708F4842F5EEF08C0815013
:100B800011F7F9C0891B5093E8008823A9F09091D0
:100B9000E800492F4570D9F392FDF0C0982F8132BB
:100BA00008F090E2492F442369F3F901259120933D
:100BB000F1009F014150F7CF903249F3DFC08530FB
:100BC00041F48EEF8093E800E9DE00680093E300D3
:100BD000D5C0893001F5C111CEC00093BF0110927C
:100BE000BD011092B2018EEF8093E80081E0E1EA4E
:100BF000F1E08093E90095919093EB00992331F017
:100C000095919093EC0095919093ED008F5F8530D6
:100C100081F78EE1ABC0883049F4C03809F0ABC031
:100C2000BDDE8091BF018093F1007EC0813279F4F6
:100C3000C13A09F0A0C0B2DEE2E0F1E08081809329
:100C4000F100319681E0E930F807C1F76DC08032DC
:100C500009F047C0C13209F08EC08091E80082FFE0
:100C6000FCCFE2E0F1E08091F1008083319681E0F9
:100C7000E930F807C1F78BEF8093E8008EEF80939F
:100C8000E80030910201409103018091040120911C
:100C9000050190E0A0E0B0E0DC0199278827942BC3
:100CA000832BB22B86389105A105B10521F48FE085
:100CB0008093B10163C086399105A105B10509F0A2
:100CC0005DC084E08093E9009FEF8091EE00837027
:100CD00039F09093E8008091E80082FDFCCFF5CFD9
:100CE000DADD823231F4C13209F045C00093BD0132
:100CF00005C0833229F4C13209F03DC04FDE14C073
:100D0000811116C04BDEC23851F4E092E9008091A7
:100D1000EB0085FB882780F91092E90001C080E094
:100D20008093F1001092F1008EEF8093E80026C0CE
:100D3000982F9D7F9130F9F4C230E9F4012BD9F45A
:100D4000CE2DCF779FEF9C0F9630A8F49EEF909317
:100D5000E800C093E900833071F089E18093EB00F3
:100D600081E090E001C0880FCA95EAF78093EA001D
:100D70001092EA0003C081E28093EB00FF91EF91B3
:100D8000CF91BF91AF919F918F917F916F915F9123
:100D90004F913F912F911F910F91FF90EF900F90E6
:100DA0000FBE0F901F901895CF93DF931F92CDB772
:100DB000DEB76983DC01ED91FC910280F381E02DC7
:100DC00041E050E0BE016F5F7F4F09950F90DF91CA
:100DD000CF910895FC018FB7F8949091BF019111C4
:100DE00002C090E010C093E09093E9009091F2006F
:100DF000911109C02091E80022FFF3CF25FDF1CF2A
:100E00002BE62093E8008FBF2085318537FD03C096
:100E10009F3F09F09F5F892F90E00895CF93DF9364
:100E2000EC018885998597FF09C0E881F9810284E2
:100E3000F385E02DCE010995998788878885998566
:100E4000DF91CF910895FC012085318537FD07C0E2
:100E50004FEF5FEF51874087C901992708959FB7EA
:100E6000F8948091BF01882369F083E08093E900C2
:100E70002BE68091E80085FD09C082FF03C0209326
:100E8000E800F7CF9FBF8FEF9FEF08958091F100AB
:100E90002091E80025FD03C02BE62093E8009FBFCA
:100EA00090E008958091BF01882361F08FB7F89496
:100EB00094E09093E9009091F2008FBF80E4891B49
:100EC00090E0089580E090E00895BF92CF92DF9285
:100ED000EF92FF920F931F93CF93DF937C0180914A
:100EE000BF01882371F02FB7F89484E08093E90064
:100EF0008091B001882369F08091E80085FD07C0EA
:100F00002FBF81E0F701828300E010E0D3C0109290
:100F1000B00100E010E084E0D82E90E4C92EA1EFEB
:100F2000B0E03AE3B32E33E04115510509F4C1C0F6
:100F30008091E400815F9091E80095FD16C02FBF7D
:100F40009091E400891304C081E08093B00105C052
:100F50009091BF01911104C081E0F7018283AAC082
:100F60002FB7F894D092E900E6CF8091F2009C2D43
:100F7000981BE92FF0E04E175F0708F4942FE92F34
:100F8000F0E04E1B5F0B0E0F1F1FEB01E0E4E91BAF
:100F9000E03428F4EE0FFF27E053F84F099480C0A7
:100FA00099919C9399919C9399919C9399919C93DD
:100FB00099919C9399919C9399919C9399919C93CD
:100FC00099919C9399919C9399919C9399919C93BD
:100FD00099919C9399919C9399919C9399919C93AD
:100FE00099919C9399919C9399919C9399919C939D
:100FF00099919C9399919C9399919C9399919C938D
:1010000099919C9399919C9399919C9399919C937C
:1010100099919C9399919C9399919C9399919C936C
:1010200099919C9399919C9399919C9399919C935C
:1010300099919C9399919C9399919C9399919C934C
:1010400099919C9399919C9399919C9399919C933C
:1010500099919C9399919C9399919C9399919C932C
:1010600099919C9399919C9399919C9399919C931C
:1010700099919C9399919C9399919C9399919C930C
:1010800099919C9399919C9399919C9399919C93FC
:1010900099919C9399919C9399919C9399919C93EC
:1010A000BE018091E80085FFB092E8003093B20164
:1010B0003BCF2FBFC801DF91CF911F910F91FF90C0
:1010C000EF90DF90CF90BF9008952FEF3FEFFC019E
:1010D0003187208768DC0FB6F8948091A801909141
:1010E000A901A091AA01B091AB010FBE9C01809112
:1010F000BF01882329F068EC70E080E090E014CC18
:101100008091BE01882309F10FB6F8948091A8015F
:101110009091A901A091AA01B091AB010FBEAC01C1
:101120008091BE01882389F00FB6F8948091A801C0
:101130009091A901A091AA01B091AB010FBE841BAF
:10114000950B8B3F910560F308950FB6F89480914D
:10115000A8019091A901A091AA01B091AB010FBE85
:10116000821B930B853C994008F4C1CF08959FB72B
:10117000F8948091BF01882321F08091B201811100
:1011800002C09FBF089584E08093E9008AE38093C2
:10119000E8001092B201F5CFEACFE3EBF1E08AE08C
:1011A000DF011D928A95E9F788EE93E0A0E0B0E0B8
:1011B00083839483A583B6838FE191E091838083B9
:1011C0000895EE0FFF1F0590F491E02D0994F89417
:0211D000FFCF4F
:1011D20001FF00E100000000080000000009020811
:1011E20003C9010402BA01EC01D90100000000D4D4
:0E11F2000665075207CC08EA0623070E070021
:00000001FF
